:1000000000000320D1010000458B0000FD8A0000A4
:10001000FD8A0000FD8A0000FD8A0000FD8A0000C4
:10002000FD8A0000FD8A0000FD8A0000458B00006B
:10003000458B0000FD8A0000458B0000ED8A000022
:10004000458B0000458B0000458B0000458B000070
:10005000458B0000458B0000458B0000458B000060
:10006000458B0000458B0000458B0000458B000050
:10007000458B0000458B0000458B0000458B000040
:10008000458B0000458B0000458B0000458B000030
:10009000458B0000458B0000458B0000458B000020
:1000A000458B0000458B0000458B0000458B000010
:1000B000458B0000458B0000458B0000118C000033
:1000C000458B00003D8D0000458B0000698E0000CF
:1000D000458B0000618F0000458B0000458B0000C0
:1000E000458B0000458B0000458B0000458B0000D0
:1000F000458B0000458B0000458B0000458B0000C0
:10010000458B0000458B0000458B0000458B0000AF
:10011000458B0000A57D0000458B0000458B00004D
:10012000458B0000458B0000458B0000458B00008F
:10013000458B0000458B0000458B0000458B00007F
:10014000458B0000458B000059900000458B000056
:10015000458B0000458B0000458B0000458B00005F
:10016000458B0000458B0000458B0000458B00004F
:10017000458B0000458B0000458B0000458B00003F
:10018000458B0000458B0000458B0000458B00002F
:10019000458B0000458B000051910000458B00000D
:1001A000458B0000458B0000458B0000458B00000F
:1001B000458B0000458B0000458B0000458B0000FF
:1001C000458B0000458B0000458B0000458B0000EF
:1001D0005C4B4CF2205210B51A804DF628121A8052
:1001E00000BF00BF08F0B2FC574B4FF030621A60FE
:1001F000564A9A60564ADA60564B4FF470021A60BB
:10020000554B564A1A60564A136813F4807304D14A
:1002100054490B604FF4A8531360534B1A781107DD
:1002200003D51A7842F008021A70504B5049AA229E
:100230001A70504A504B8B4204D252F8040F43F8C4
:10024000040BF8E74D4B4E4900228B4202D243F893
:10025000042BFAE74B494C4A002352F8230041F89B
:1002600023000133742BF8D1484B494A802103F80D
:10027000011B9342FBD1474B424A1A60464B8A22EC
:100280001A70A3F5805324225A70A0221A709A790A
:100290009207FCD59A79D406FCD4404A937903F0AE
:1002A0000C03082BFAD13E4B60221A7002331A78E5
:1002B000802AFCD1394B01221A715D225A719A7938
:1002C0009006FCD59979354A4906FBD5354B364918
:1002D00019600021596020231370937903F00C03F7
:1002E0000C2BFAD1314B324A1A60324B324A1A6027
:1002F00000225A60072243F8042C304AC3F80C2D20
:1003000062B607F0E1FB174B1B68DA0705D52C48EE
:1003100007F006F92B4B2C4A1A602C4B1B785B0616
:1003200009D5284C284B22689A4204D1244807F06A
:10033000F7F80023236008F0F7FF08F00DFC08F041
:1003400075FBFEE70E20054030800440823F04002C
:100350000100002B88ED00E0002008E0030000858C
:1003600010D0034014D0034002D0074000E0074003
:10037000C412FF1F50A800003007FF1FC412FF1F48
:100380003C1EFF1F0002FF1F0000000000E400E011
:1003900064E400E008ED00E0005006400040064044
:1003A00001E007404480044000000602048004404D
:1003B000C010070014E000E01FBF02000000202072
:1003C000D810CC591CE00340A5C3945A00F0074054
:1003D000FFFFFFFFFFFFFFFFFFFFFFFFFFFFFFFF2D
:1003E000FFFFFFFFFFFFFFFFFFFFFFFFFFFFFFFF1D
:1003F000FFFFFFFFFFFFFFFFFFFFFFFFFFFFFFFF0D
:10040000FFFFFFFFFFFFFFFFFFFFFFFFDEF9FFFF23
:1004100010B5054C237833B9044B13B10448AFF33E
:1004200000800123237010BDC412FF1F00000000D4
:1004300054A80000084B10B51BB108490848AFF399
:1004400000800848036803B910BD074B002BFBD0A0
:10045000BDE81040184700BF00000000C812FF1F91
:1004600054A80000C412FF1F0000000043680B7076
:1004700043681B0A4B70C3888B70C379CB70836849
:100480000B7183681B0A4B7143898B71C37ACB71E3
:10049000082070470B7843604A7843EA02234360A0
:1004A0008A7843EA02434360CA7843EA02634360BE
:1004B0000B7983604A7943EA022383608A7943EAAD
:1004C00002438360CA7943EA02638360082070476D
:1004D00000487047ECA2000000487047FCA20000F2
:1004E000F0B50C460A788280064614F8010F002306
:1004F00042EA0022B2801A4614F8010F98400833ED
:10050000202B42EA0002F7D1971D062F58D901F19E
:10051000050E551D73464C1913F8010F03F8010C15
:10052000A342F9D100234B5518460D44C6F808E004
:1005300015F8014F84400830202843EA0403F7D11E
:10054000381D0344834209D909320A440446013460
:1005500012F8015F02F8015CA342F8D80138CF1805
:100560000024084407F8014C2246F06017F8015BAC
:1005700095400832202A44EA0504F7D1181D0444A6
:10058000A04209D203330B440246013213F8015F43
:1005900003F8015CA242F8D30D1901380844002386
:1005A00005F8013C3061A8786B780A5DED780104AC
:1005B00041EA0323134343EA0563201D7361F0BD41
:1005C000551D01F1050EADE70048704720A300005E
:1005D000004870473CA300000B78F0B4037100237F
:1005E00006460C461D4614F8012F9A400833202B6E
:1005F00045EA0205F7D1681D052801F1040708D96D
:100600002C1D3B460C4413F8012F03F8012C9C428F
:10061000F9D10D4400232B71B760F0BC704700BFC7
:100620000048704760A300000048704774A30000B2
:100630000048704798A500000048704798A3000044
:10064000B0F904300B70C3F307224A7002207047E0
:100650004A780B7843EA022383800220704700BF68
:1006600000487047BCA3000000487047CCA30000BE
:10067000F0B40B7843604A7843EA022343608A78F7
:1006800043EA02434360CA7843EA026343600B795A
:1006900083604A7943EA022383608A7943EA02430A
:1006A0008360CA7943EA026383600B7AC3604A7A43
:1006B00043EA0223C3608A7A0C4643EA0242C260DC
:1006C00014F80B5F002342EA0562C2601D4614F86D
:1006D000012F9A400833202B45EA0205F7D105F196
:1006E0001006102E01F10F0709D905F10F043B4642
:1006F0000C4413F8012F03F8012C9C42F9D1294432
:100700000023CB7307613046F0BC70470048704748
:10071000F0A300000048704700A4000000487047A4
:1007200024A400000048704738A400000849B0F92C
:1007300004300A8812B2934209D0B3F5007F06DC78
:1007400003F50073034A1BB201200B801070704741
:100750001218FF1FE818FF1F0849B0F904300A8873
:1007600012B2934209D0B3F5007F06DC03F50073A3
:10077000034A1BB201200B80107070476018FF1FE6
:100780001018FF1F90F8F404704700BF10B40B78E6
:100790004C78426943EA042303825DF8044B0C3031
:1007A000104700BF8069704700487047BCA3000035
:1007B00000487047CCA3000007F0CEBF436870B577
:1007C0000B7043681B0A4B70C3888B70C379CB7066
:1007D00083680B7183681B0A4B7143898B71C37AE1
:1007E000CB71C3680B72C3681B0A4B72C3898B72CF
:1007F000C37BCB72054600690C4608F0C1FF030EAF
:10080000010A020C06462073A2736173E37329691F
:1008100004F11000324606F029FC06F1100070BD0C
:1008200043682DE9F0470B7043681B0A4B70C3887F
:100830008B70C379CB704368002B00F085800A462B
:1008400000250426C36853F8253013711C0C1F0AB9
:100850001B0E94715771D37143680135AB42344616
:1008600002F1040206F10406ECD804F1080204F1D6
:10087000050A04F1060904F1070804F1090C04F162
:100880000A0E04F10B0517460C3403698B550369F6
:100890001B0A01F80A30438A01F80930C37C01F8C9
:1008A00008300369F3B101EB070E75460022836936
:1008B00053F822300EF822301C0C1E0A1B0EAC70AE
:1008C0006E70EB700369013293423C4605F10405FA
:1008D00007F10407EBD804F1050C04F1060EE51D41
:1008E0003A460834C3698B54C3691B0A01F80C30BB
:1008F000C38B01F80E30C37F4B55C3690BB30F4652
:1009000080460026D8F8243053F8260008F038FF37
:10091000B10005463A19002325FA03F00833202BCD
:1009200002F8010BF8D1D8F824300434381959589A
:100930002A4606F09BFBD8F81C300136B3422C4403
:10094000E0D82046BDE8F087082217460C240B2586
:100950004FF00A0E4FF0090C4FF007084FF0060950
:100960004FF0050A042690E770B503790B70064630
:1009700080680D4608F004FF2A460446002324FA46
:1009800003F10833202B02F8011FF8D1B168681D6C
:10099000224606F06BFB601D70BD00BFF8B5838872
:1009A0000B7083881B0A4B70064680680D4608F062
:1009B000E7FE030E010A020C6B71A8702A71E97040
:1009C00002460446B168A81D06F050FBF06808F026
:1009D000D7FE611D024629440634002322FA03F0A3
:1009E0000833202B01F8010FF8D104342819F168DD
:1009F000144406F03BFB306908F0C2FE2A19074692
:100A0000002327FA03F10833202B02F8011BF8D149
:100A1000043428193A46316906F028FB38197369FD
:100A20002B540544190A1A0C1B0E6970AA70EB703E
:100A30000430F8BD084607F079BF00BF2DE9F04F3C
:100A400043680C689C4283B005460E4600F2B380B2
:100A50006C60002C00F0B88005F1080C33460027CC
:100A60004FF0040E9C795A79197993F80780E86859
:100A7000240444EA02220A4342EA0862AA60DCF83B
:100A8000002040F827206A680137BA42714603F116
:100A900004030EF1040EE5D801F1080847464B1D8A
:100AA000881DCA1D01F1090A01F10A0B01F10B09A8
:100AB00001F10C04305CF35C16F80E1016F802E03D
:100AC0002A69000440EA03230B4343EA0E6393427E
:100AD00000F290802B613BB305F1140CF3194FF039
:100AE000000E9C785A78197893F80380A86924043A
:100AF00044EA02220A4342EA08626A61DCF8002002
:100B000040F82E202A690EF1010E72453C4603F191
:100B1000040307F10407E4D804F1050A04F1060B05
:100B200004F10709B846083416F80B2016F80A0035
:100B300016F8083016F80970E969120442EA002232
:100B4000134343EA07678F424ED8EF617FB3002714
:100B5000BC4605F1200E00231946301910F8012B70
:100B60009A400833202B41EA0201F7D104F104082E
:100B70004144884509D2E31C33444246013213F80C
:100B8000010F03F8010C8A42F8D3721808F1FF38FC
:100B900002F801CC06EB08032B626A6ADEF800302B
:100BA00042F82730EB690137BB420C46D3D82046C8
:100BB00003B0BDE8F08FA100C06808F0DDFB6C60F9
:100BC000E860002C7FF448AF4FF0080847460C243B
:100BD0004FF00B094FF00A0B4FF0090A07220620CD
:100BE00005234FF0040E65E7B900686A08F0C4FBFE
:100BF0006862AAE79900A869019308F0BDFB019B10
:100C0000A86167E7F0B50B7883604A7843EA02236E
:100C100083608A7843EA02438360CA7843EA0263C6
:100C200083600B79C3604A7943EA0223C3608A79FF
:100C300043EA0243C360CA7943EA0263C3600B7AA2
:100C400003614A7A43EA022303618A7A0D4643EA42
:100C500002420261044615F80B0F002342EA0062CB
:100C60002261184615F8012F9A400833202B40EADC
:100C70000200F7D100F11007102F01F10F0E09D972
:100C800000F10F0573460D4413F8012F03F8012CF2
:100C90009D42F9D10E180023F373C4F814E0B57C1B
:100CA000737CCA5DF67C290441EA0323134343EABB
:100CB00006631430A361F0BD836870B50B70836860
:100CC0001B0A4B7043898B70C37ACB70C3680B715E
:100CD000C3681B0A4B71C3898B71C37BCB710369DA
:100CE0000B7203691B0A4B72438A8B72C37CCB72F3
:100CF000054640690C4608F043FD030E010A020C4C
:100D00002073A273E373617306466969024604F1B6
:100D1000100006F0ABF9AB6934441D0A190C1A0E29
:100D200023746574A174E27406F1140070BD00BFF1
:100D3000F0B585B0364A01920368364D039503221B
:100D40008DF808201B6834498B425AD10023382182
:100D5000044680F81F2205F1300E80F8201280F83A
:100D6000213280F8223280F8233200F509772E46AE
:100D70000FCE764538607960BA60FB60354607F182
:100D80001007F4D103CD00227960C2234FF0FF0E8B
:100D9000FE263D250721386084F81C3284F818E2CD
:100DA00084F8196284F81A5284F81B2284F81E22EF
:100DB00084F81D1204F21D2304F25B2001E013F8F5
:100DC000011F83420A44FAD1D243144E84F85C22B4
:100DD00004F2172504F5177703E007F0A7FDBD42DD
:100DE0000BD0626815F8011F13681B68B3420846F0
:100DF000F3D010469847BD42F3D14FF0FF3005B015
:100E0000F0BD01AA072198474FF0FF3005B0F0BDB3
:100E100050A200005CA40000F12E0000350A000082
:100E2000214B10B4D3F8E82013685068197804787F
:100E3000507A137A044201EA03011BD0937A03F03B
:100E4000030309B143F0040343F008039910013B85
:100E500091720D2B0BD8DFE803F021071B070A1551
:100E60002121150A071B0721D368013BD3605DF8D8
:100E7000044B7047937A03F003030029E6D043F054
:100E80000403E3E7D3685DF8044B023BD36070478B
:100E9000D3685DF8044B0233D3607047D3685DF8C4
:100EA000044B0133D3607047EC18FF1F214B10B483
:100EB000D3F8EC201368506819780478507A137AC4
:100EC000044201EA03011BD0937A03F0030309B142
:100ED00043F0040343F008039910013B91720D2B7A
:100EE0000BD8DFE803F021071B070A152121150A9B
:100EF000071B0721D368013BD3605DF8044B7047A3
:100F0000937A03F003030029E6D043F00403E3E7F8
:100F1000D3685DF8044B023BD3607047D3685DF83B
:100F2000044B0233D3607047D3685DF8044B013340
:100F3000D3607047EC18FF1F214B10B49A6E1368F2
:100F4000506819780478507A137A044201EA030150
:100F50001BD0937A03F0030309B143F0040343F079
:100F600008039910013B91720D2B0BD8DFE803F0B9
:100F700021071B070A152121150A071B0721D36822
:100F8000013BD3605DF8044B7047937A03F0030391
:100F90000029E6D043F00403E3E7D3685DF8044B8F
:100FA000023BD3607047D3685DF8044B0233D360D3
:100FB0007047D3685DF8044B0133D360704700BFBE
:100FC000EC18FF1F214B10B4DA6E136850681978C3
:100FD0000478507A137A044201EA03011BD0937A11
:100FE00003F0030309B143F0040343F0080399102D
:100FF000013B91720D2B0BD8DFE803F021071B0793
:101000000A152121150A071B0721D368013BD3606C
:101010005DF8044B7047937A03F003030029E6D090
:1010200043F00403E3E7D3685DF8044B023BD3606D
:101030007047D3685DF8044B0233D3607047D368C0
:101040005DF8044B0133D360704700BFEC18FF1FFD
:10105000214B10B41A6F1368506819780478507ACD
:10106000137A044201EA03011BD0937A03F00303CD
:1010700009B143F0040343F008039910013B917256
:101080000D2B0BD8DFE803F021071B070A152121E0
:10109000150A071B0721D368013BD3605DF8044B99
:1010A0007047937A03F003030029E6D043F004036A
:1010B000E3E7D3685DF8044B023BD3607047D36825
:1010C0005DF8044B0233D3607047D3685DF8044B7E
:1010D0000133D360704700BFEC18FF1F214B10B4E1
:1010E0005A6F1368506819780478507A137A04425A
:1010F00001EA03011BD0937A03F0030309B143F023
:10110000040343F008039910013B91720D2B0BD897
:10111000DFE803F021071B070A152121150A071B29
:101120000721D368013BD3605DF8044B7047937A85
:1011300003F003030029E6D043F00403E3E7D36898
:101140005DF8044B023BD3607047D3685DF8044BF5
:101150000233D3607047D3685DF8044B0133D3602A
:10116000704700BFEC18FF1F214B10B49A6F136833
:10117000506819780478507A137A044201EA03011E
:101180001BD0937A03F0030309B143F0040343F047
:1011900008039910013B91720D2B0BD8DFE803F087
:1011A00021071B070A152121150A071B0721D368F0
:1011B000013BD3605DF8044B7047937A03F003035F
:1011C0000029E6D043F00403E3E7D3685DF8044B5D
:1011D000023BD3607047D3685DF8044B0233D360A1
:1011E0007047D3685DF8044B0133D360704700BF8C
:1011F000EC18FF1F214B10B4DA6F13685068197890
:101200000478507A137A044201EA03011BD0937ADE
:1012100003F0030309B143F0040343F008039910FA
:10122000013B91720D2B0BD8DFE803F021071B0760
:101230000A152121150A071B0721D368013BD3603A
:101240005DF8044B7047937A03F003030029E6D05E
:1012500043F00403E3E7D3685DF8044B023BD3603B
:101260007047D3685DF8044B0233D3607047D3688E
:101270005DF8044B0133D360704700BFEC18FF1FCB
:10128000214B10B4D3F88020136850681978047883
:10129000507A137A044201EA03011BD0937A03F0D7
:1012A000030309B143F0040343F008039910013B21
:1012B00091720D2B0BD8DFE803F021071B070A15ED
:1012C0002121150A071B0721D368013BD3605DF874
:1012D000044B7047937A03F003030029E6D043F0F0
:1012E0000403E3E7D3685DF8044B023BD360704727
:1012F000D3685DF8044B0233D3607047D3685DF860
:10130000044B0133D3607047EC18FF1F214B10B41E
:10131000D3F884201368506819780478507A137AC7
:10132000044201EA03011BD0937A03F0030309B1DD
:1013300043F0040343F008039910013B91720D2B15
:101340000BD8DFE803F021071B070A152121150A36
:10135000071B0721D368013BD3605DF8044B70473E
:10136000937A03F003030029E6D043F00403E3E794
:10137000D3685DF8044B023BD3607047D3685DF8D7
:10138000044B0233D3607047D3685DF8044B0133DC
:10139000D3607047EC18FF1F214B10B4D3F888209E
:1013A0001368506819780478507A137A044201EA75
:1013B00003011BD0937A03F0030309B143F0040344
:1013C00043F008039910013B91720D2B0BD8DFE815
:1013D00003F021071B070A152121150A071B072106
:1013E000D368013BD3605DF8044B7047937A03F0F8
:1013F00003030029E6D043F00403E3E7D3685DF874
:10140000044B023BD3607047D3685DF8044B023352
:10141000D3607047D3685DF8044B0133D3607047E5
:10142000EC18FF1F214B10B4D3F88C2013685068C0
:1014300019780478507A137A044201EA03011BD028
:10144000937A03F0030309B143F0040343F0080364
:101450009910013B91720D2B0BD8DFE803F02107A7
:101460001B070A152121150A071B0721D368013B19
:10147000D3605DF8044B7047937A03F003030029AF
:10148000E6D043F00403E3E7D3685DF8044B023B86
:10149000D3607047D3685DF8044B0233D360704764
:1014A000D3685DF8044B0133D3607047EC18FF1F1D
:1014B000214B10B4D3F89020136850681978047841
:1014C000507A137A044201EA03011BD0937A03F0A5
:1014D000030309B143F0040343F008039910013BEF
:1014E00091720D2B0BD8DFE803F021071B070A15BB
:1014F0002121150A071B0721D368013BD3605DF842
:10150000044B7047937A03F003030029E6D043F0BD
:101510000403E3E7D3685DF8044B023BD3607047F4
:10152000D3685DF8044B0233D3607047D3685DF82D
:10153000044B0133D3607047EC18FF1F214B10B4EC
:10154000D3F894201368506819780478507A137A85
:10155000044201EA03011BD0937A03F0030309B1AB
:1015600043F0040343F008039910013B91720D2BE3
:101570000BD8DFE803F021071B070A152121150A04
:10158000071B0721D368013BD3605DF8044B70470C
:10159000937A03F003030029E6D043F00403E3E762
:1015A000D3685DF8044B023BD3607047D3685DF8A5
:1015B000044B0233D3607047D3685DF8044B0133AA
:1015C000D3607047EC18FF1F214B10B4D3F898205C
:1015D0001368506819780478507A137A044201EA43
:1015E00003011BD0937A03F0030309B143F0040312
:1015F00043F008039910013B91720D2B0BD8DFE8E3
:1016000003F021071B070A152121150A071B0721D3
:10161000D368013BD3605DF8044B7047937A03F0C5
:1016200003030029E6D043F00403E3E7D3685DF841
:10163000044B023BD3607047D3685DF8044B023320
:10164000D3607047D3685DF8044B0133D3607047B3
:10165000EC18FF1F214B10B4D3F89C20136850687E
:1016600019780478507A137A044201EA03011BD0F6
:10167000937A03F0030309B143F0040343F0080332
:101680009910013B91720D2B0BD8DFE803F0210775
:101690001B070A152121150A071B0721D368013BE7
:1016A000D3605DF8044B7047937A03F0030300297D
:1016B000E6D043F00403E3E7D3685DF8044B023B54
:1016C000D3607047D3685DF8044B0233D360704732
:1016D000D3685DF8044B0133D3607047EC18FF1FEB
:1016E000214B10B4D3F8A0201368506819780478FF
:1016F000507A137A044201EA03011BD0937A03F073
:10170000030309B143F0040343F008039910013BBC
:1017100091720D2B0BD8DFE803F021071B070A1588
:101720002121150A071B0721D368013BD3605DF80F
:10173000044B7047937A03F003030029E6D043F08B
:101740000403E3E7D3685DF8044B023BD3607047C2
:10175000D3685DF8044B0233D3607047D3685DF8FB
:10176000044B0133D3607047EC18FF1F214B10B4BA
:10177000D3F8A4201368506819780478507A137A43
:10178000044201EA03011BD0937A03F0030309B179
:1017900043F0040343F008039910013B91720D2BB1
:1017A0000BD8DFE803F021071B070A152121150AD2
:1017B000071B0721D368013BD3605DF8044B7047DA
:1017C000937A03F003030029E6D043F00403E3E730
:1017D000D3685DF8044B023BD3607047D3685DF873
:1017E000044B0233D3607047D3685DF8044B013378
:1017F000D3607047EC18FF1F214B10B4D3F8A8201A
:101800001368506819780478507A137A044201EA10
:1018100003011BD0937A03F0030309B143F00403DF
:1018200043F008039910013B91720D2B0BD8DFE8B0
:1018300003F021071B070A152121150A071B0721A1
:10184000D368013BD3605DF8044B7047937A03F093
:1018500003030029E6D043F00403E3E7D3685DF80F
:10186000044B023BD3607047D3685DF8044B0233EE
:10187000D3607047D3685DF8044B0133D360704781
:10188000EC18FF1F214B10B4D3F8AC20136850683C
:1018900019780478507A137A044201EA03011BD0C4
:1018A000937A03F0030309B143F0040343F0080300
:1018B0009910013B91720D2B0BD8DFE803F0210743
:1018C0001B070A152121150A071B0721D368013BB5
:1018D000D3605DF8044B7047937A03F0030300294B
:1018E000E6D043F00403E3E7D3685DF8044B023B22
:1018F000D3607047D3685DF8044B0233D360704700
:10190000D3685DF8044B0133D3607047EC18FF1FB8
:10191000214B10B4D3F8B0201368506819780478BC
:10192000507A137A044201EA03011BD0937A03F040
:10193000030309B143F0040343F008039910013B8A
:1019400091720D2B0BD8DFE803F021071B070A1556
:101950002121150A071B0721D368013BD3605DF8DD
:10196000044B7047937A03F003030029E6D043F059
:101970000403E3E7D3685DF8044B023BD360704790
:10198000D3685DF8044B0233D3607047D3685DF8C9
:10199000044B0133D3607047EC18FF1F214B10B488
:1019A000D3F8B4201368506819780478507A137A01
:1019B000044201EA03011BD0937A03F0030309B147
:1019C00043F0040343F008039910013B91720D2B7F
:1019D0000BD8DFE803F021071B070A152121150AA0
:1019E000071B0721D368013BD3605DF8044B7047A8
:1019F000937A03F003030029E6D043F00403E3E7FE
:101A0000D3685DF8044B023BD3607047D3685DF840
:101A1000044B0233D3607047D3685DF8044B013345
:101A2000D3607047EC18FF1F214B10B4D3F8B820D7
:101A30001368506819780478507A137A044201EADE
:101A400003011BD0937A03F0030309B143F00403AD
:101A500043F008039910013B91720D2B0BD8DFE87E
:101A600003F021071B070A152121150A071B07216F
:101A7000D368013BD3605DF8044B7047937A03F061
:101A800003030029E6D043F00403E3E7D3685DF8DD
:101A9000044B023BD3607047D3685DF8044B0233BC
:101AA000D3607047D3685DF8044B0133D36070474F
:101AB000EC18FF1F214B10B4D3F8BC2013685068FA
:101AC00019780478507A137A044201EA03011BD092
:101AD000937A03F0030309B143F0040343F00803CE
:101AE0009910013B91720D2B0BD8DFE803F0210711
:101AF0001B070A152121150A071B0721D368013B83
:101B0000D3605DF8044B7047937A03F00303002918
:101B1000E6D043F00403E3E7D3685DF8044B023BEF
:101B2000D3607047D3685DF8044B0233D3607047CD
:101B3000D3685DF8044B0133D3607047EC18FF1F86
:101B4000214B10B4D3F8C02013685068197804787A
:101B5000507A137A044201EA03011BD0937A03F00E
:101B6000030309B143F0040343F008039910013B58
:101B700091720D2B0BD8DFE803F021071B070A1524
:101B80002121150A071B0721D368013BD3605DF8AB
:101B9000044B7047937A03F003030029E6D043F027
:101BA0000403E3E7D3685DF8044B023BD36070475E
:101BB000D3685DF8044B0233D3607047D3685DF897
:101BC000044B0133D3607047EC18FF1F214B10B456
:101BD000D3F8C4201368506819780478507A137ABF
:101BE000044201EA03011BD0937A03F0030309B115
:101BF00043F0040343F008039910013B91720D2B4D
:101C00000BD8DFE803F021071B070A152121150A6D
:101C1000071B0721D368013BD3605DF8044B704775
:101C2000937A03F003030029E6D043F00403E3E7CB
:101C3000D3685DF8044B023BD3607047D3685DF80E
:101C4000044B0233D3607047D3685DF8044B013313
:101C5000D3607047EC18FF1F214B10B4D3F8C82095
:101C60001368506819780478507A137A044201EAAC
:101C700003011BD0937A03F0030309B143F004037B
:101C800043F008039910013B91720D2B0BD8DFE84C
:101C900003F021071B070A152121150A071B07213D
:101CA000D368013BD3605DF8044B7047937A03F02F
:101CB00003030029E6D043F00403E3E7D3685DF8AB
:101CC000044B023BD3607047D3685DF8044B02338A
:101CD000D3607047D3685DF8044B0133D36070471D
:101CE000EC18FF1F214B10B4D3F8CC2013685068B8
:101CF00019780478507A137A044201EA03011BD060
:101D0000937A03F0030309B143F0040343F008039B
:101D10009910013B91720D2B0BD8DFE803F02107DE
:101D20001B070A152121150A071B0721D368013B50
:101D3000D3605DF8044B7047937A03F003030029E6
:101D4000E6D043F00403E3E7D3685DF8044B023BBD
:101D5000D3607047D3685DF8044B0233D36070479B
:101D6000D3685DF8044B0133D3607047EC18FF1F54
:101D7000214B10B4D3F8D020136850681978047838
:101D8000507A137A044201EA03011BD0937A03F0DC
:101D9000030309B143F0040343F008039910013B26
:101DA00091720D2B0BD8DFE803F021071B070A15F2
:101DB0002121150A071B0721D368013BD3605DF879
:101DC000044B7047937A03F003030029E6D043F0F5
:101DD0000403E3E7D3685DF8044B023BD36070472C
:101DE000D3685DF8044B0233D3607047D3685DF865
:101DF000044B0133D3607047EC18FF1F214B10B424
:101E0000D3F8D4201368506819780478507A137A7C
:101E1000044201EA03011BD0937A03F0030309B1E2
:101E200043F0040343F008039910013B91720D2B1A
:101E30000BD8DFE803F021071B070A152121150A3B
:101E4000071B0721D368013BD3605DF8044B704743
:101E5000937A03F003030029E6D043F00403E3E799
:101E6000D3685DF8044B023BD3607047D3685DF8DC
:101E7000044B0233D3607047D3685DF8044B0133E1
:101E8000D3607047EC18FF1F214B10B4D3F8D82053
:101E90001368506819780478507A137A044201EA7A
:101EA00003011BD0937A03F0030309B143F0040349
:101EB00043F008039910013B91720D2B0BD8DFE81A
:101EC00003F021071B070A152121150A071B07210B
:101ED000D368013BD3605DF8044B7047937A03F0FD
:101EE00003030029E6D043F00403E3E7D3685DF879
:101EF000044B023BD3607047D3685DF8044B023358
:101F0000D3607047D3685DF8044B0133D3607047EA
:101F1000EC18FF1F214B10B4D3F8DC201368506875
:101F200019780478507A137A044201EA03011BD02D
:101F3000937A03F0030309B143F0040343F0080369
:101F40009910013B91720D2B0BD8DFE803F02107AC
:101F50001B070A152121150A071B0721D368013B1E
:101F6000D3605DF8044B7047937A03F003030029B4
:101F7000E6D043F00403E3E7D3685DF8044B023B8B
:101F8000D3607047D3685DF8044B0233D360704769
:101F9000D3685DF8044B0133D3607047EC18FF1F22
:101FA000214B10B4D3F8E0201368506819780478F6
:101FB000507A137A044201EA03011BD0937A03F0AA
:101FC000030309B143F0040343F008039910013BF4
:101FD00091720D2B0BD8DFE803F021071B070A15C0
:101FE0002121150A071B0721D368013BD3605DF847
:101FF000044B7047937A03F003030029E6D043F0C3
:102000000403E3E7D3685DF8044B023BD3607047F9
:10201000D3685DF8044B0233D3607047D3685DF832
:10202000044B0133D3607047EC18FF1F214B10B4F1
:10203000D3F8E4201368506819780478507A137A3A
:10204000044201EA03011BD0937A03F0030309B1B0
:1020500043F0040343F008039910013B91720D2BE8
:102060000BD8DFE803F021071B070A152121150A09
:10207000071B0721D368013BD3605DF8044B704711
:10208000937A03F003030029E6D043F00403E3E767
:10209000D3685DF8044B023BD3607047D3685DF8AA
:1020A000044B0233D3607047D3685DF8044B0133AF
:1020B000D3607047EC18FF1F214B10B49A6A136865
:1020C000506819780478507A137A044201EA0301BF
:1020D0001BD0937A03F0030309B143F0040343F0E8
:1020E00008039910013B91720D2B0BD8DFE803F028
:1020F00021071B070A152121150A071B0721D36891
:10210000013BD3605DF8044B7047937A03F00303FF
:102110000029E6D043F00403E3E7D3685DF8044BFD
:10212000023BD3607047D3685DF8044B0233D36041
:102130007047D3685DF8044B0133D360704700BF2C
:10214000EC18FF1F214B10B4DA6A13685068197835
:102150000478507A137A044201EA03011BD0937A7F
:1021600003F0030309B143F0040343F0080399109B
:10217000013B91720D2B0BD8DFE803F021071B0701
:102180000A152121150A071B0721D368013BD360DB
:102190005DF8044B7047937A03F003030029E6D0FF
:1021A00043F00403E3E7D3685DF8044B023BD360DC
:1021B0007047D3685DF8044B0233D3607047D3682F
:1021C0005DF8044B0133D360704700BFEC18FF1F6C
:1021D000214B10B41A6B1368506819780478507A40
:1021E000137A044201EA03011BD0937A03F003033C
:1021F00009B143F0040343F008039910013B9172C5
:102200000D2B0BD8DFE803F021071B070A1521214E
:10221000150A071B0721D368013BD3605DF8044B07
:102220007047937A03F003030029E6D043F00403D8
:10223000E3E7D3685DF8044B023BD3607047D36893
:102240005DF8044B0233D3607047D3685DF8044BEC
:102250000133D360704700BFEC18FF1F214B10B44F
:102260005A6B1368506819780478507A137A0442CC
:1022700001EA03011BD0937A03F0030309B143F091
:10228000040343F008039910013B91720D2B0BD806
:10229000DFE803F021071B070A152121150A071B98
:1022A0000721D368013BD3605DF8044B7047937AF4
:1022B00003F003030029E6D043F00403E3E7D36807
:1022C0005DF8044B023BD3607047D3685DF8044B64
:1022D0000233D3607047D3685DF8044B0133D36099
:1022E000704700BFEC18FF1F214B10B49A6B1368A6
:1022F000506819780478507A137A044201EA03018D
:102300001BD0937A03F0030309B143F0040343F0B5
:1023100008039910013B91720D2B0BD8DFE803F0F5
:1023200021071B070A152121150A071B0721D3685E
:10233000013BD3605DF8044B7047937A03F00303CD
:102340000029E6D043F00403E3E7D3685DF8044BCB
:10235000023BD3607047D3685DF8044B0233D3600F
:102360007047D3685DF8044B0133D360704700BFFA
:10237000EC18FF1F214B10B4DA6B13685068197802
:102380000478507A137A044201EA03011BD0937A4D
:1023900003F0030309B143F0040343F00803991069
:1023A000013B91720D2B0BD8DFE803F021071B07CF
:1023B0000A152121150A071B0721D368013BD360A9
:1023C0005DF8044B7047937A03F003030029E6D0CD
:1023D00043F00403E3E7D3685DF8044B023BD360AA
:1023E0007047D3685DF8044B0233D3607047D368FD
:1023F0005DF8044B0133D360704700BFEC18FF1F3A
:10240000214B10B41A6C1368506819780478507A0C
:10241000137A044201EA03011BD0937A03F0030309
:1024200009B143F0040343F008039910013B917292
:102430000D2B0BD8DFE803F021071B070A1521211C
:10244000150A071B0721D368013BD3605DF8044BD5
:102450007047937A03F003030029E6D043F00403A6
:10246000E3E7D3685DF8044B023BD3607047D36861
:102470005DF8044B0233D3607047D3685DF8044BBA
:102480000133D360704700BFEC18FF1F214B10B41D
:102490005A6C1368506819780478507A137A044299
:1024A00001EA03011BD0937A03F0030309B143F05F
:1024B000040343F008039910013B91720D2B0BD8D4
:1024C000DFE803F021071B070A152121150A071B66
:1024D0000721D368013BD3605DF8044B7047937AC2
:1024E00003F003030029E6D043F00403E3E7D368D5
:1024F0005DF8044B023BD3607047D3685DF8044B32
:102500000233D3607047D3685DF8044B0133D36066
:10251000704700BFEC18FF1F214B10B49A6C136872
:10252000506819780478507A137A044201EA03015A
:102530001BD0937A03F0030309B143F0040343F083
:1025400008039910013B91720D2B0BD8DFE803F0C3
:1025500021071B070A152121150A071B0721D3682C
:10256000013BD3605DF8044B7047937A03F003039B
:102570000029E6D043F00403E3E7D3685DF8044B99
:10258000023BD3607047D3685DF8044B0233D360DD
:102590007047D3685DF8044B0133D360704700BFC8
:1025A000EC18FF1F214B10B4DA6C136850681978CF
:1025B0000478507A137A044201EA03011BD0937A1B
:1025C00003F0030309B143F0040343F00803991037
:1025D000013B91720D2B0BD8DFE803F021071B079D
:1025E0000A152121150A071B0721D368013BD36077
:1025F0005DF8044B7047937A03F003030029E6D09B
:1026000043F00403E3E7D3685DF8044B023BD36077
:102610007047D3685DF8044B0233D3607047D368CA
:102620005DF8044B0133D360704700BFEC18FF1F07
:10263000214B10B41A6D1368506819780478507AD9
:10264000137A044201EA03011BD0937A03F00303D7
:1026500009B143F0040343F008039910013B917260
:102660000D2B0BD8DFE803F021071B070A152121EA
:10267000150A071B0721D368013BD3605DF8044BA3
:102680007047937A03F003030029E6D043F0040374
:10269000E3E7D3685DF8044B023BD3607047D3682F
:1026A0005DF8044B0233D3607047D3685DF8044B88
:1026B0000133D360704700BFEC18FF1F214B10B4EB
:1026C0005A6D1368506819780478507A137A044266
:1026D00001EA03011BD0937A03F0030309B143F02D
:1026E000040343F008039910013B91720D2B0BD8A2
:1026F000DFE803F021071B070A152121150A071B34
:102700000721D368013BD3605DF8044B7047937A8F
:1027100003F003030029E6D043F00403E3E7D368A2
:102720005DF8044B023BD3607047D3685DF8044BFF
:102730000233D3607047D3685DF8044B0133D36034
:10274000704700BFEC18FF1F214B10B49A6D13683F
:10275000506819780478507A137A044201EA030128
:102760001BD0937A03F0030309B143F0040343F051
:1027700008039910013B91720D2B0BD8DFE803F091
:1027800021071B070A152121150A071B0721D368FA
:10279000013BD3605DF8044B7047937A03F0030369
:1027A0000029E6D043F00403E3E7D3685DF8044B67
:1027B000023BD3607047D3685DF8044B0233D360AB
:1027C0007047D3685DF8044B0133D360704700BF96
:1027D000EC18FF1F214B10B4DA6D1368506819789C
:1027E0000478507A137A044201EA03011BD0937AE9
:1027F00003F0030309B143F0040343F00803991005
:10280000013B91720D2B0BD8DFE803F021071B076A
:102810000A152121150A071B0721D368013BD36044
:102820005DF8044B7047937A03F003030029E6D068
:1028300043F00403E3E7D3685DF8044B023BD36045
:102840007047D3685DF8044B0233D3607047D36898
:102850005DF8044B0133D360704700BFEC18FF1FD5
:10286000214B10B41A6E1368506819780478507AA6
:10287000137A044201EA03011BD0937A03F00303A5
:1028800009B143F0040343F008039910013B91722E
:102890000D2B0BD8DFE803F021071B070A152121B8
:1028A000150A071B0721D368013BD3605DF8044B71
:1028B0007047937A03F003030029E6D043F0040342
:1028C000E3E7D3685DF8044B023BD3607047D368FD
:1028D0005DF8044B0233D3607047D3685DF8044B56
:1028E0000133D360704700BFEC18FF1F214B10B4B9
:1028F0005A6E1368506819780478507A137A044233
:1029000001EA03011BD0937A03F0030309B143F0FA
:10291000040343F008039910013B91720D2B0BD86F
:10292000DFE803F021071B070A152121150A071B01
:102930000721D368013BD3605DF8044B7047937A5D
:1029400003F003030029E6D043F00403E3E7D36870
:102950005DF8044B023BD3607047D3685DF8044BCD
:102960000233D3607047D3685DF8044B0133D36002
:10297000704700BFEC18FF1F214B10B49A68136812
:10298000506819780478507A137A044201EA0301F6
:102990001BD0937A03F0030309B143F0040343F01F
:1029A00008039910013B91720D2B0BD8DFE803F05F
:1029B00021071B070A152121150A071B0721D368C8
:1029C000013BD3605DF8044B7047937A03F0030337
:1029D0000029E6D043F00403E3E7D3685DF8044B35
:1029E000023BD3607047D3685DF8044B0233D36079
:1029F0007047D3685DF8044B0133D360704700BF64
:102A0000EC18FF1F214B10B4DA681368506819786E
:102A10000478507A137A044201EA03011BD0937AB6
:102A200003F0030309B143F0040343F008039910D2
:102A3000013B91720D2B0BD8DFE803F021071B0738
:102A40000A152121150A071B0721D368013BD36012
:102A50005DF8044B7047937A03F003030029E6D036
:102A600043F00403E3E7D3685DF8044B023BD36013
:102A70007047D3685DF8044B0233D3607047D36866
:102A80005DF8044B0133D360704700BFEC18FF1FA3
:102A9000214B10B41A691368506819780478507A79
:102AA000137A044201EA03011BD0937A03F0030373
:102AB00009B143F0040343F008039910013B9172FC
:102AC0000D2B0BD8DFE803F021071B070A15212186
:102AD000150A071B0721D368013BD3605DF8044B3F
:102AE0007047937A03F003030029E6D043F0040310
:102AF000E3E7D3685DF8044B023BD3607047D368CB
:102B00005DF8044B0233D3607047D3685DF8044B23
:102B10000133D360704700BFEC18FF1F214B10B486
:102B20005A691368506819780478507A137A044205
:102B300001EA03011BD0937A03F0030309B143F0C8
:102B4000040343F008039910013B91720D2B0BD83D
:102B5000DFE803F021071B070A152121150A071BCF
:102B60000721D368013BD3605DF8044B7047937A2B
:102B700003F003030029E6D043F00403E3E7D3683E
:102B80005DF8044B023BD3607047D3685DF8044B9B
:102B90000233D3607047D3685DF8044B0133D360D0
:102BA000704700BFEC18FF1F214B10B49A691368DF
:102BB000506819780478507A137A044201EA0301C4
:102BC0001BD0937A03F0030309B143F0040343F0ED
:102BD00008039910013B91720D2B0BD8DFE803F02D
:102BE00021071B070A152121150A071B0721D36896
:102BF000013BD3605DF8044B7047937A03F0030305
:102C00000029E6D043F00403E3E7D3685DF8044B02
:102C1000023BD3607047D3685DF8044B0233D36046
:102C20007047D3685DF8044B0133D360704700BF31
:102C3000EC18FF1F214B10B4DA691368506819783B
:102C40000478507A137A044201EA03011BD0937A84
:102C500003F0030309B143F0040343F008039910A0
:102C6000013B91720D2B0BD8DFE803F021071B0706
:102C70000A152121150A071B0721D368013BD360E0
:102C80005DF8044B7047937A03F003030029E6D004
:102C900043F00403E3E7D3685DF8044B023BD360E1
:102CA0007047D3685DF8044B0233D3607047D36834
:102CB0005DF8044B0133D360704700BFEC18FF1F71
:102CC000214B10B41A6A1368506819780478507A46
:102CD000137A044201EA03011BD0937A03F0030341
:102CE00009B143F0040343F008039910013B9172CA
:102CF0000D2B0BD8DFE803F021071B070A15212154
:102D0000150A071B0721D368013BD3605DF8044B0C
:102D10007047937A03F003030029E6D043F00403DD
:102D2000E3E7D3685DF8044B023BD3607047D36898
:102D30005DF8044B0233D3607047D3685DF8044BF1
:102D40000133D360704700BFEC18FF1F214B10B454
:102D50005A6A1368506819780478507A137A0442D2
:102D600001EA03011BD0937A03F0030309B143F096
:102D7000040343F008039910013B91720D2B0BD80B
:102D8000DFE803F021071B070A152121150A071B9D
:102D90000721D368013BD3605DF8044B7047937AF9
:102DA00003F003030029E6D043F00403E3E7D3680C
:102DB0005DF8044B023BD3607047D3685DF8044B69
:102DC0000233D3607047D3685DF8044B0133D3609E
:102DD000704700BFEC18FF1F214B10B41A6813682E
:102DE000506819780478507A137A044201EA030192
:102DF0001BD0937A03F0030309B143F0040343F0BB
:102E000008039910013B91720D2B0BD8DFE803F0FA
:102E100021071B070A152121150A071B0721D36863
:102E2000013BD3605DF8044B7047937A03F00303D2
:102E30000029E6D043F00403E3E7D3685DF8044BD0
:102E4000023BD3607047D3685DF8044B0233D36014
:102E50007047D3685DF8044B0133D360704700BFFF
:102E6000EC18FF1F214B10B45A681368506819788A
:102E70000478507A137A044201EA03011BD0937A52
:102E800003F0030309B143F0040343F0080399106E
:102E9000013B91720D2B0BD8DFE803F021071B07D4
:102EA0000A152121150A071B0721D368013BD360AE
:102EB0005DF8044B7047937A03F003030029E6D0D2
:102EC00043F00403E3E7D3685DF8044B023BD360AF
:102ED0007047D3685DF8044B0233D3607047D36802
:102EE0005DF8044B0133D360704700BFEC18FF1F3F
:102EF0002DE9F041632984B003DD90F8F464002EDD
:102F000055D0136805460E4610461B6805F21F2172
:102F10009847C2B2C0F307215418E44380B200F2CC
:102F20001E234FF0FF0C85F81A224FF0FE0E46F3D9
:102F3000072285F81C4205F21D27F4B285F81B1202
:102F400085F81E22E91885F818C285F819E285F877
:102F50001D423B46002201E013F8014F99422244F2
:102F6000FAD1C31D00F1080615FA83F3B6B2D243B5
:102F7000B6F5007F83F818221DD805F50672B6B1A4
:102F8000771EDFF81081D71905F2172403E005F04A
:102F9000CDFCBC420BD06A6814F8011F13681B6893
:102FA00043450846F3D010469847BC42F3D130461B
:102FB00004B0BDE8F081344A0192344C2B6803948C
:102FC00003228DF808201B6831498B4255D100231C
:102FD000382185F81F2204F1300C85F8201285F87D
:102FE000213285F8223285F8233205F50976A64686
:102FF000BEE80F00E64530607160B260F360744671
:1030000006F11006F3D103CC002371604FF0FF0CE2
:10301000C2214FF0FE0E3D240722306085F81C12BD
:1030200085F818C285F819E285F81A4285F81B322E
:1030300085F81E3285F81D2205F25B2101E017F8A4
:10304000012F8F421344FAD1DB43DFF8488085F823
:103050005C3205F2172405F5177603E005F066FCEF
:10306000B4420ED06A6814F8011F13681B68434508
:103070000846F3D010469847F2E7284601AA0721F0
:1030800098474FF0FF3692E750A200005CA4000082
:10309000F12E0000350A0000F8B5044615460E462C
:1030A0000846022104F0B8FC2846022104F0B4FCD2
:1030B000984A994B52F83610012001F500772760A5
:1030C000207252F83520607202F5007700206760A8
:1030D000E060013BFDD191F8003292F8002203F04C
:1030E0000103D20744BF43F00203DBB2A3723B2EBD
:1030F00000F20386DFE816F0F405EA05E005D605E0
:10310000CC05C205B805AE05A4059A05900586054F
:103110007C05720568055E0554054A0540053605BF
:103120002C05220518050E050405FA04F004E60432
:10313000DC04D204C804BE04B304A8049D049204B1
:1031400087047C0428041E0414040A040004F60303
:10315000EC03E203D803CE03C403BA03B003A6030F
:103160009C03920388037E0374036A0360033C009C
:103170006A4B6B49C3F8EC4004223B2004F054F93D
:10318000012323743B2D00F2B585DFE815F00B0316
:103190000103F702ED02E302D902CF02C502BB022E
:1031A000B102A7029D02930289027F023102270227
:1031B0001D0213020902FF01F501EB01E101D70134
:1031C000CD01C301B901AF01A5019B0191018601A8
:1031D0007B01700165015A014F01440139012E0143
:1031E000230118010D010201F700EC00E100B80015
:1031F000AD00A20097008C00810076006B0060009B
:1032000055004A003C00454B4549C3F8EC400422B8
:103210003B2004F009F9237C012213442374204647
:10322000F8BD3E4B3F49C3F8E84004223A2004F081
:10323000FBF8237C0122F0E7384B3B49C3F8E4401C
:103240000422392004F0F0F8237C0122E5E7334B17
:103250003649C3F8E0400422382004F0E5F8237C26
:103260000122DAE72D4B3249C3F8DC400422372033
:1032700004F0DAF8237C0122CFE7284B2D49C3F86C
:10328000D8400422362004F0CFF8237C0122C4E782
:10329000224B2949C3F8D4400422352004F0C4F855
:1032A000237C0122B9E71D4B2449C3F8D0400422F6
:1032B000342004F0B9F8237C0122AEE7174B2049F3
:1032C000C3F8CC400422332004F0AEF8237C012262
:1032D000A3E7124B1B49C3F8C8400422322004F074
:1032E000A3F8237C012298E70C4B1749C3F8C4408C
:1032F0000422312004F098F8237C01228DE7074B4B
:103300001249C3F8C0400422302004F08DF8237C19
:10331000012282E7B4A50000C0D40100EC18FF1F11
:10332000AD0E0000210E00002D200000A11F0000A6
:10333000151F0000891E0000FD1D0000711D00000A
:10334000E51C0000591C0000CD1B0000411B0000C3
:10335000AC4BAD49C3F8BC4004222F2004F064F804
:10336000237C012259E7A74BA849C3F8B84004229F
:103370002E2004F059F8237C01224EE7A14BA449EA
:10338000C3F8B44004222D2004F04EF8237C01221F
:1033900043E79C4B9F49C3F8B04004222C2004F023
:1033A00043F8237C012238E7964B9B49C3F8AC4095
:1033B00004222B2004F038F8237C01222DE7914BC6
:1033C0009649C3F8A84004222A2004F02DF8237C53
:1033D000012222E78B4B9249C3F8A4400422292002
:1033E00004F022F8237C012217E7864B8D49C3F8AD
:1033F000A0400422282004F017F8237C01220CE7C7
:10340000804B8949C3F89C400422272004F00CF823
:10341000237C012201E77B4B8449C3F898400422B6
:10342000262004F001F8237C0122F6E6754B804942
:10343000C3F894400422252003F0F6FF237C0122E8
:10344000EBE6704B7B49C3F890400422242003F044
:10345000EBFF237C0122E0E66A4B7749C3F88C40FE
:103460000422232003F0E0FF237C0122D5E6654BF4
:103470007249C3F888400422222003F0D5FF237C40
:103480000122CAE65F4B6E49C3F884400422212022
:1034900003F0CAFF237C0122BFE65A4B6949C3F8F7
:1034A00080400422202003F0BFFF237C0122B4E6E9
:1034B000544B6549DC6704221F2003F0B5FF237CD1
:1034C0000122AAE64F4B61499C6704221E2003F0AB
:1034D000ABFF237C0122A0E64A4B5D495C670422D6
:1034E0001D2003F0A1FF237C012296E6454B59499C
:1034F0001C6704221C2003F097FF237C01228CE62A
:10350000404B5549DC6604221B2003F08DFF237CD1
:10351000012282E63B4B51499C6604221A2003F0AB
:1035200083FF237C012278E6364B4D495C660422FA
:10353000192003F079FF237C01226EE6314B4949C3
:103540001C660422182003F06FFF237C012264E62E
:103550002C4B4549DC650422172003F065FF237CD2
:1035600001225AE6274B41499C650422162003F0AC
:103570005BFF237C012250E6224B3D495C6504221F
:10358000152003F051FF237C012246E61D4B3949EB
:103590001C650422142003F047FF237C01223CE633
:1035A000184B3549DC640422132003F03DFF237CD3
:1035B000012232E6134B31499C640422122003F0AD
:1035C00033FF237C012228E60E4B2D495C64042244
:1035D000112003F029FF237C01221EE6094B294913
:1035E0001C640422102003F01FFF237C012214E638
:1035F000044B2549DC6304220F2003F015FF237CD4
:1036000001220AE6EC18FF1FB51A0000291A000073
:103610009D1900001119000085180000F91700001D
:103620006D170000E116000055160000C9150000D6
:103630003D150000B114000025140000991300008E
:103640000D13000081120000F51100006911000047
:10365000DD10000051100000C50F0000390F000000
:10366000ED28000061280000D52700004927000050
:10367000BD26000031260000A52500001925000008
:103680008D2400000124000075230000B34BB449D1
:103690009C6304220E2003F0C7FE237C0122BCE5BC
:1036A000AE4BB0495C6304220D2003F0BDFE237CC9
:1036B0000122B2E5A94BAC491C6304220C2003F0A3
:1036C000B3FE237C0122A8E5A44BA849DC620422B6
:1036D0000B2003F0A9FE237C01229EE59F4BA44909
:1036E0009C6204220A2003F09FFE237C012294E5C1
:1036F0009A4BA0495C620422092003F095FE237CCA
:1037000001228AE5954B9C491C620422082003F0A3
:103710008BFE237C012280E5904B9849DC610422DA
:10372000072003F081FE237C012276E58B4B944930
:103730009C610422062003F077FE237C01226CE5C5
:10374000864B90495C610422052003F06DFE237CCA
:10375000012262E5814B8C491C610422104603F072
:1037600063FE237C012258E57C4B8849DC600422FF
:10377000032003F059FE237C01224EE5774B844958
:103780009C600422022003F04FFE237C012244E5CA
:10379000724B80495C600422012003F045FE237CCB
:1037A00001223AE56D4B7C491C600422002003F0A5
:1037B0003BFE237C012230E5684B7849C3F8E840A2
:1037C00004223A2003F030FE0123DAE4634B74490B
:1037D000C3F8E4400422392003F026FE0123D0E49C
:1037E0005E4B7049C3F8E0400422382003F01CFE11
:1037F0000123C6E4594B6C49C3F8DC40042237204E
:1038000003F012FE0123BCE4544B6849C3F8D840CE
:103810000422362003F008FE0123B2E44F4B644932
:10382000C3F8D4400422352003F0FEFD0123A8E4B0
:103830004A4B6049C3F8D0400422342003F0F4FD21
:1038400001239EE4454B5C49C3F8CC40042233205D
:1038500003F0EAFD012394E4404B5849C3F8C84003
:103860000422322003F0E0FD01238AE43B4B54495B
:10387000C3F8C4400422312003F0D6FD012380E4C4
:10388000364B5049C3F8C0400422302003F0CCFD31
:10389000012376E4314B4C49C3F8BC4004222F206D
:1038A00003F0C2FD01236CE42C4B4849C3F8B84037
:1038B00004222E2003F0B8FD012362E4274B444983
:1038C000C3F8B44004222D2003F0AEFD012358E4D8
:1038D000224B4049C3F8B04004222C2003F0A4FD41
:1038E00001234EE41D4B3C49C3F8AC4004222B207D
:1038F00003F09AFD012344E4184B3849C3F8A8406B
:1039000004222A2003F090FD01233AE4134B3449AA
:10391000C3F8A4400422292003F086FD012330E4EB
:103920000E4B3049C3F8A0400422282003F07CFD50
:10393000012326E4094B2C49C3F89C40042227208C
:1039400003F072FD01231CE4044B2849C3F898409E
:103950000422262003F068FD012312E4EC18FF1F67
:10396000E92200005D220000D12100004521000075
:10397000B92000004D2D0000C12C0000352C0000A6
:10398000A92B00001D2B0000912A0000052A000031
:1039900079290000652E0000D92D0000210E0000BD
:1039A0002D200000A11F0000151F0000891E00002F
:1039B000FD1D0000711D0000E51C0000591C0000E9
:1039C000CD1B0000411B0000B51A0000291A0000A1
:1039D0009D1900001119000085180000F91700005A
:1039E0006D170000E116000055160000C915000013
:1039F000C34BC449C3F894400422252003F014FDAE
:103A00000123FFF7BEBBBE4BBF49C3F89040042261
:103A1000242003F009FD0123FFF7B3BBB84BBB49DA
:103A2000C3F88C400422232003F0FEFC0123FFF79F
:103A3000A8BBB34BB649C3F888400422222003F048
:103A4000F3FC0123FFF79DBBAD4BB249C3F88440A3
:103A50000422212003F0E8FC0123FFF792BBA84BCE
:103A6000AD49C3F880400422202003F0DDFC01238F
:103A7000FFF787BBA24BA949DC6704221F2003F094
:103A8000D3FC0123FFF77DBB9D4BA5499C67042216
:103A90001E2003F0C9FC0123FFF773BB984BA1491B
:103AA0005C6704221D2003F0BFFC0123FFF769BB04
:103AB000934B9D491C6704221C2003F0B5FC012395
:103AC000FFF75FBB8E4B9949DC6604221B2003F095
:103AD000ABFC0123FFF755BB894B95499C6604223B
:103AE0001A2003F0A1FC0123FFF74BBB844B914943
:103AF0005C660422192003F097FC0123FFF741BB09
:103B00007F4B8D491C660422182003F08DFC012395
:103B1000FFF737BB7A4B8949DC650422172003F095
:103B200083FC0123FFF72DBB754B85499C6504225F
:103B3000162003F079FC0123FFF723BB704B81496A
:103B40005C650422152003F06FFC0123FFF719BB0D
:103B50006B4B7D491C650422142003F065FC012396
:103B6000FFF70FBB664B7949DC640422132003F096
:103B70005BFC0123FFF705BB614B75499C64042284
:103B8000122003F051FC0123FFF7FBBA5C4B714993
:103B90005C640422112003F047FC0123FFF7F1BA13
:103BA000574B6D491C640422102003F03DFC012397
:103BB000FFF7E7BA524B6949DC6304220F2003F098
:103BC00033FC0123FFF7DDBA4D4B65499C630422AA
:103BD0000E2003F029FC0123FFF7D3BA484B6149BB
:103BE0005C6304220D2003F01FFC0123FFF7C9BA18
:103BF000434B5D491C6304220C2003F015FC012398
:103C0000FFF7BFBA3E4B5949DC6204220B2003F098
:103C10000BFC0123FFF7B5BA394B55499C620422CE
:103C20000A2003F001FC0123FFF7ABBA344B5149E2
:103C30005C620422092003F0F7FB0123FFF7A1BA1D
:103C40002F4B4D491C620422082003F0EDFB012399
:103C5000FFF797BA2A4B4949DC610422072003F099
:103C6000E3FB0123FFF78DBA254B45499C610422F4
:103C7000062003F0D9FB0123FFF783BA204B41490B
:103C80005C610422052003F0CFFB0123FFF779BA22
:103C90001B4B3D491C610422104603F0C5FB012368
:103CA000FFF76FBA164B3949DC600422032003F09A
:103CB000BBFB0123FFF765BA114B35499C60042219
:103CC000022003F0B1FB0123FFF75BBA0C4B314933
:103CD0005C600422012003F0A7FB0123FFF751BA27
:103CE000074B2D491C600422002003F09DFB01239B
:103CF000FFF747BA0022FFF790BA0023FFF741BA57
:103D0000EC18FF1F3D150000B11400002514000041
:103D1000991300000D13000081120000F51100003E
:103D200069110000DD10000051100000C50F0000F7
:103D3000390F0000ED28000061280000D5270000A1
:103D400049270000BD26000031260000A5250000FF
:103D5000192500008D2400000124000075230000B7
:103D6000E92200005D220000D12100004521000071
:103D7000B92000004D2D0000C12C0000352C0000A2
:103D8000A92B00001D2B0000912A0000052A00002D
:103D900079290000652E0000D92D0000F8B52B4BC5
:103DA0002B4D93E803000022F5234FF0050EFF276B
:103DB000FE260A2485F828120721C5F8240285F872
:103DC0001C3285F820E285F8187285F8196285F8AA
:103DD0001A4285F81F2285F8212285F8222285F8CB
:103DE000232285F81B2285F81E2285F81D1205F274
:103DF0001D2305F50A7001E013F8011F98420A44DB
:103E0000FAD1144C144ED24385F8292204F111073B
:103E1000FF2105E004F08AFDA7420BD014F8011F32
:103E20006A6813681B68B3420846F3D01046984787
:103E3000A742F3D14FF40071032003F083FB4FF44A
:103E400000710420BDE8F84003F07CBB98A400009A
:103E5000E012FF1FF814FF1F350A0000F8B52A4BC7
:103E60002A4C0FCB04F5097507C54FF00D0C002245
:103E7000ED204FF0FF0EFE27122607212B7084F84D
:103E800020C284F81C0284F818E284F8197284F8BD
:103E90001A6284F81F2284F8212284F8222284F8EE
:103EA000232284F81B2284F81E2284F81D1204F2B7
:103EB0001D2304F50C7001E013F8011F98420A4419
:103EC000FAD1134D134ED24384F8312205F119076C
:103ED000FF2105E004F02AFDAF420BD015F8011FC9
:103EE000626813681B68B3420846F3D010469847CF
:103EF000AF42F3D10121182003F07AFD01211D20EA
:103F0000BDE8F84003F074BDB0A40000E012FF1F4C
:103F1000F814FF1F350A0000F8B52F4B2F4C0FCBBC
:103F200004F5097507C54FF00E0C0022EC204FF088
:103F3000FF0EFE27132607212B8084F820C284F869
:103F40001C0284F818E284F8197284F81A6284F862
:103F50001F2284F8212284F8222284F8232284F864
:103F60001B2284F81E2284F81D1204F21D2304F281
:103F7000312001E013F8011F98420A44FAD1184D8C
:103F8000184ED24384F8322205F11A07FF2105E0CA
:103F900004F0CCFCAF420BD015F8011F6268136827
:103FA0001B68B3420846F3D010469847AF42F3D19E
:103FB0004FF40071032003F0C5FA4FF400710420A0
:103FC00003F0C0FA01210C2003F012FD01211E2094
:103FD000BDE8F84003F00CBDC0A40000E012FF1FD4
:103FE000F814FF1F350A0000F8B5FFF737FF2B4E16
:103FF0002B4C2C4F0A2003F015FDFFF78DFF0A20F4
:1040000003F010FD0FCE04F509750FC533682B7052
:104010001121FF2500221620E923FE2684F8201214
:1040200084F818520721012584F81A0284F81C32FA
:1040300084F8196284F81F2284F8212284F822224D
:1040400084F8232284F81B2284F81E2284F81D128F
:1040500004F21D2304F50D703D7001E013F8011FFB
:1040600098420A44FAD1104D104ED24384F83522BA
:1040700005F11D07FF2105E004F058FCAF420BD00D
:1040800015F8011F626813681B68B3420846F3D035
:1040900010469847AF42F3D1F8BD00BFD0A400004E
:1040A000E012FF1F6218FF1FF814FF1F350A0000FF
:1040B0002DE9F047192003F0A1FC002840F0A08072
:1040C0009C4A9D4C034607CA04F5097503C502279F
:1040D0002A70F1214FF0090C4FF0FF0EFE260E253D
:1040E00084F81F72072204F21D2784F8213284F815
:1040F000223284F8233284F81B3284F81E321846A8
:1041000084F81C1284F820C284F818E284F819623A
:1041100084F81A523B4684F81D2204F50B7101E025
:1041200013F8012F99421044FAD1844D844EC043B4
:1041300084F82D02A84605F11509FF2105E004F0D9
:10414000F5FBC8450BD018F8011F626813681B689F
:10415000B3420846F3D010469847C845F3D11C2017
:1041600003F04CFC8646002800F09980754B93E8DC
:1041700003003B46A4F828120627FF2184F820728A
:1041800084F81812FE270B2100224FF0010E84F84C
:10419000197284F81A12F4270721C4F8240284F84B
:1041A0001FE203F10C0084F8212284F8222284F813
:1041B000232284F81B2284F81E2284F81C7284F8BF
:1041C0001D1201E013F8011F98420A44FAD1D243AC
:1041D00084F82A2205F11207FF2105E004F0A6FB6E
:1041E000AF420BD015F8011F626813681B68B34219
:1041F0000846F3D010469847AF42F3D1BDE8F087A8
:10420000514B4D4C93E803000122F4234FF0060C70
:104210004FF0FF0EFE260B25A4F8281204F21D27EE
:1042200084F81F2207210022C4F8240284F81C32DB
:1042300084F820C284F818E284F8196284F81A52CB
:104240003B4684F8212284F8222284F8232284F831
:104250001B2284F81E2284F81D1204F2292001E09A
:1042600013F8011F98420A44FAD1344D344ED24318
:1042700084F82A22A84605F11209FF2106E004F07D
:1042800055FBC8453FF46BAF18F8011F626813680F
:104290001B68B3420846F2D010469847F1E72B4B13
:1042A00084F8210293E80700DFF8A4C084F822E232
:1042B000ACE8030009218CF800204FF0020A4FF00F
:1042C000FF093B464FF0FE080E2784F82012072214
:1042D000F12184F823E284F81BE284F81EE27046A0
:1042E00084F81FA284F8189284F8198284F81A724C
:1042F00084F81C1284F81D2201E013F8012F9C455C
:104300001044FAD1C04384F82D0205F11507FF21AE
:1043100006E004F00BFBAF423FF470AF15F8011F4D
:10432000626813681B68B3420846F2D0104698478B
:10433000F1E700BFE4A40000E012FF1FF814FF1F24
:10434000350A000004A50000F0A40000F8A4000055
:104350000415FF1F2DE9F04F012191B0032003F058
:104360005BFB01210C2003F057FB0121182003F017
:1043700053FB0221192003F04FFB00211F2003F003
:104380004BFB0021202003F047FB02211C2003F0FF
:1043900043FB01211D2003F03FFB01211E2003F000
:1043A0003BFB0121042003F037FB0021182003F020
:1043B0001FFB00211D2003F01BFB00210C2003F03C
:1043C00017FB00211E2003F013FB9FEDBB0ADFF853
:1043D00050B3BA4CBA4EBB4F032003F063FA9FEDC3
:1043E000B60A042003F05EFA0A2003F04BFAFFF746
:1043F000D5FCB54B00220C201A7002F041FFB34BE4
:10440000DBF80050B248A36040F6C411037843B112
:1044100033789B0705D0DBF800303A689B1A182BDD
:1044200004D8DBF800305B1B8B42EFD90023A94A8C
:10443000C4F8E034C4F8E434C4F8EC34C4F8E83424
:1044400002E00133192B0AD052F8041F0029F8D1D9
:1044500004EB8301A04AC1F87C24643353609D4A75
:10446000002302E00133192B0AD052F8041F00295F
:10447000F8D104EB8301994AC1F87C24643353607A
:10448000974A002302E00133192B0BD052F8041F86
:104490000029F8D103F58371924A44F821207D3335
:1044A0009360D4608E4A002302E00133192B0BD0B5
:1044B00052F8041F0029F8D103F583718A4A44F8A1
:1044C00021207D339360D460884F894D89498A4E7D
:1044D0008A488B4A00233B80B3612B8083610B7039
:1044E000137072B6874AD36062B672B6864AD360DA
:1044F00062B6FFF779FD854B02931D46FFF7D8FDA5
:104500000A2003F08FFADFF81CA294F8F434804EEE
:104510000193A5F50675019B002B40F02381DBF884
:1045200000300993DDF82490D4F8FC3442F6F822E8
:10453000C3EB0903934284BF9DF8043085F8F4343B
:10454000D4F8E03433B1D5F80035994584BF002361
:10455000C5F8E034606803685B69B34263D104F076
:10456000FBF8002862DBD4F8F034D4F8E024534F91
:104570000344072AC4F8F03400F03D816AB9FF28EB
:1045800000F0A281DBF800300C930C9BC9EB030315
:10459000052BDFD987F8F424C1E7012A00F03E811A
:1045A000022A00F09981032A00F0A181042A00F078
:1045B000A881052A00F0B481062A00F0B981082AF2
:1045C000C8D1544A1A4000239A42C4F8E034C0F2D9
:1045D000C381FF2ABED1D4F8E814384B002900F07B
:1045E00001830A2900F0C482062900F0C5810B2945
:1045F00000F0B78105EB8101D1F8EC020028A9D0C9
:104600000268454912688A4240F0EB84697E2B7E3D
:10461000426943EA012303820C30904760680368D3
:104620005B69B3429BD0984700289CDA94F8F43435
:104630000193002B3FF473AFD5F8F83440F6C41261
:10464000C3EB090393427FF666AFFF21FE27334B8E
:1046500085F818120821002285F8197285F81A12B7
:10466000F7270A2103F1090085F81F2285F8202287
:1046700085F8212285F8222285F8232285F8242234
:1046800085F8252285F8262285F81B2285F81E222A
:1046900085F81C7285F81D1201E013F8011F98427D
:1046A0000A44FAD1029BD24384F82722984603F1A8
:1046B0000F07FF213EE000BFC0E16447E012FF1F8B
:1046C000EC1AFF1F341EFF1F6218FF1F80841E009C
:1046D000D41AFF1F5817FF1F6418FF1FCC18FF1FA5
:1046E000F416FF1F1C18FF1F9418FF1F1218FF1F3E
:1046F0006018FF1FE818FF1FA818FF1F3018FF1FC2
:104700001018FF1F4C18FF1F8018FF1FF814FF1F01
:10471000B9070000FF0000808D070000FD14FF1F97
:10472000F019FF1F350A000004F000F9B8450BD05E
:1047300018F8011F626813681B6853450846F3D0D8
:1047400010469847B845F3D1DBF800300893089B32
:10475000E36094F8F4340193019BC4F8F894002BBF
:104760003FF4DDAE814B824D0FCBEE1D86E80F008E
:1047700001221026FF2084F81F22FE22002384F845
:10478000206284F818021526EA2084F819220722EC
:1047900005F1160184F8213284F8223284F823329C
:1047A00084F81B3284F81E3284F81A6284F81C02E2
:1047B00084F81D2201E015F8012FA9421344FAD113
:1047C000029DDB4384F8343205F11C06FF2105E02D
:1047D00004F0ACF8B5420BD015F8011F62681368FD
:1047E0001B6853450846F3D010469847B542F3D1AD
:1047F00011B0BDE8F08FD5F8EC24D5F8E434A91851
:10480000013B01320876C5F8EC24C5F8E434002BEE
:104810007FF4A0AE0823C4F8E0349BE6FE287BD0EA
:1048200095F8F4240023C5F8E034002A7FF492AE12
:10483000FF23FE21082085F8183285F81912F72386
:104840000A2185F81C3285F81F2207F21D2385F8FE
:10485000202285F8212285F8222285F8232285F856
:10486000242285F8252285F8262285F81B2285F842
:104870001E2285F81A0285F81D1207F2262701E08C
:1048800013F8011F9F420A44FAD1029BD24384F8D5
:1048900027221F4603F10F08FF2105E004F046F828
:1048A00047450BD017F8011F626813681B68534512
:1048B0000846F3D0104698474745F3D1DBF800305F
:1048C0000B930B9BE36045E6012209F11403C5F845
:1048D000E024C5F800353DE600220323C5F8E404D2
:1048E000C5F8F004C5F8EC24C5F8E03432E6D5F894
:1048F000E43403EB00200423C5F8E404C5F8E034F5
:1049000028E61C4A1A40002A21DBFF2A0CBF052397
:104910000023C4F8E0341DE60223C5F8E03419E6AC
:104920000623C5F8E804C5F8F004C5F8E03411E63C
:10493000D5F8E834D5F8E42403EB00230721C5F8C3
:10494000E834C5F8E014002A3FF464AF02E6013A07
:1049500062F0FF020132D8E7013A62F0FF02013251
:1049600037E6002385F8F434F4E500BF0CA5000019
:10497000FD14FF1FFF000080AF69D5F80C359F4282
:1049800006D9B900D5F8140504F0F6FCC5F81405ED
:10499000C4F80C75002F00F03883AD4B4FF0040EB7
:1049A00003F5A2670022997F93F81DC0187F0904C0
:1049B00041EA0C2193F81FC0014341EA0C61C4F89D
:1049C0001015D4F81415386841F82200D4F80C05F5
:1049D00001329042714603F104030EF1040EE2D855
:1049E000CA1D069201F10902049201F10A02039222
:1049F00001F10B0201F10803059201F10C02F446EA
:104A00001F46481D01F1060E0792A6442118069A7A
:104A10009EF8180091F81880D4F8181504EB0C0EC5
:104A2000224400049EF818E092F818C040EA0820DA
:104A300040EA0E0040EA0C68884509D94FEA88012F
:104A4000D5F82005069304F097FC069BC5F82005D1
:104A5000C4F81885B8F1000F00F0E982DFF804E22D
:104A6000EB190022997E93F819C0187E090441EAD7
:104A70000C2193F81BC0014341EA0C61CEF80010F1
:104A8000D4F82015DEF8000041F82200D4F818050B
:104A900001329042394603F1040307F10407E1D8DB
:104AA0004A1D04928A1D0392CA1D3B46059201F1DC
:104AB0000807039A0499224421440846117ED4F839
:104AC00024250392059A007E2344224409041B7E78
:104AD00092F8188041EA00210B4343EA0868039BDF
:104AE000984507D94FEA8801D5F82C0504F044FC15
:104AF000C5F82C05C4F82485B8F1000F34D0554909
:104B0000002201F5A26E07F118080023A0449C467C
:104B100018F8010B98400833202B4CEA000CF7D111
:104B2000381D844484450AD907F11B0323440746F2
:104B3000013793F8018003F8018BBC45F8D804EBEA
:104B40000C034FF000070138DF750844D4F82C350A
:104B5000C4F82805DEF8000043F82200D4F8243514
:104B6000013293426746CED8012384F80435F1E43C
:104B7000DBF800200D920D99EA68DBF800000F9039
:104B80003548EF69DFF8E0C0DDF83C808A1AA0FB09
:104B9000020E4FEA9E1EBC444FF47A702F4FA96953
:104BA00000FB1E2207FB02C203922B4AA2FB082C29
:104BB0004FEA9C1C039A013900FB1C80714407FBDF
:104BC0001022CCEB010703F1100003F114016A611C
:104BD0002F6102F01DFADBF800300E930E9BC5F832
:104BE000FC34B7E483F81822F720FE2708260A22AF
:104BF00083F81C0283F81F1283F8201283F8211215
:104C000083F8221283F8231283F8241283F82512E2
:104C100083F8261283F81B1283F81E1283F8197288
:104C200083F81A6283F81D2203F2262003F21D2363
:104C300001E013F8012F83421144FAD1084EC94311
:104C4000A6F10F0384F8271202931F46FF2113E0F9
:104C5000E012FF1FF812FF1FD34D621040420F00F9
:104C60000715FF1FFC17FF1F00CA9A3B03F05EFEEB
:104C7000B7420BD017F8011F626813681B685345D1
:104C80000846F3D010469847B742F3D1DBF800301E
:104C90000A930A9BDFF8C4B3E360CDF804905BF895
:104CA000043F002B00F0BE8058689A6801680392A8
:104CB000D3F800808B689847DBF8003007465868C7
:104CC0000368DB689847DBF80030039A1E69632E9F
:104CD000814604DD94F8F434002B00F0A380C2F385
:104CE0000723404684F81F2284F8203204F048FD50
:104CF0000346020A000C4FEA136E414684F8222252
:104D000084F823021A46CB4884F82132039384F8AE
:104D100024E202F0ABF9384604F032FD039B024670
:104D200003F2252020440633002122FA01FE083137
:104D3000202900F801EBF8D1BF4804333946184464
:104D4000D71802F093F9484604F01AFD07F21F2223
:104D500080462244002328FA03F10833202B02F86E
:104D6000011BF8D1B44B0437D8194246494602F02A
:104D70007DF908EB07010F1DC7F307235FFA87F8DA
:104D8000214408EB030E002202206FEA0E0EBFB290
:104D900081F8200281F81F2281F8212281F8222245
:104DA00007F21E20F1B24FF0FF0C84F81CE246F32C
:104DB00007264FF0FE0E84F81B3284F81A829F4BB0
:104DC00084F818C2204484F819E284F81D1284F88B
:104DD0001E6201E013F8011F83420A44FAD1F91D53
:104DE00007F1080314FA81F19BB2D243B3F5007FB7
:104DF00081F8182200F23681A3B103F21723904FF5
:104E0000EE1803E003F092FDB7420BD0626817F88A
:104E1000011F13681B6853450846F3D01046984796
:104E2000B742F3D1874B9B457FF439AFDDF804904F
:104E3000CDF80C909B465BF8040F002800F0C28070
:104E400090E8080281689A6801917F498A4240F09F
:104E5000D6807E4EDA687E498A4240F0CA80DFF80A
:104E600000825B687B4A934240F0C0808769632F71
:104E700004DD94F8F434002B00F0A480C9F3072378
:104E8000019884F8203284F81F9204F079FC81465E
:104E9000020A000C019984F822224FEA196E4A4650
:104EA00084F82302634884F824E284F8219202F013
:104EB000DDF8304604F064FC024609F22520204467
:104EC00009F10603002122FA01FE0831202900F829
:104ED00001EBF8D1DFF860910433314609EB0300B0
:104EE000D61802F0C3F8404604F04AFC06F21F212F
:104EF00003462144002223FA02F00832202A01F856
:104F0000010BF8D1043641461A4609EB060001931D
:104F100002F0ACF8019B33441E1DF1B2C6F3072822
:104F2000234401EB080E002202206FEA0E0EB6B2F7
:104F300083F8200283F81F2283F8212283F822229B
:104F400006F21E204FF0FF0C84F81CE284F81A12BF
:104F50004FF0FE0EF9B247F3072784F81B82374B58
:104F600084F818C2204484F819E284F81D1284F8E9
:104F70001E7201E013F8011F83420A44FAD1F11DA9
:104F800006F1080314FA81F19BB2D243B3F5007F16
:104F900081F8182200F2B480A3B103F21723284F3E
:104FA000EE1803E003F0C2FCBE420BD0626817F8B3
:104FB000011F13681B6853450846F3D010469847F5
:104FC000BE42F3D1244B9B457FF435AFDDF80C9006
:104FD000C4F8F8940123C4F8FC9484F8F434FFF77F
:104FE000C1BB03F118019047FFF7B4BA98470746D1
:104FF0003DE790478046DBF80000036831E79047C3
:105000000646DBF80000036824E70C2207920B2217
:1050100005920A22039209220823049207221F46BE
:1050200006924FF0060E05204FF0040CEDE4079FAA
:105030003FE500BF0515FF1FFF14FF1FFD14FF1FF5
:10504000F714FF1F5817FF1FA9070000BCA300009B
:10505000B1070000A5070000BC17FF1FF416FF1FD3
:10506000CCA300004D4F4E4E0FCF0FC60FCF0FC633
:105070000FCF0FC697E8030000234FF0030E382729
:10508000FF2285F81FE285F820724FF0FE0E3D27C3
:1050900085F8213285F8223285F8233286E803002C
:1050A000C22185F818220722F01D85F81B3285F8E9
:1050B0001E32373E85F819E285F81A7285F81C12FF
:1050C00085F81D2201E016F8012FB0421344FAD1F1
:1050D000344EDB4384F85C32A6F14407FF2006E03F
:1050E00003F024FCB7423FF49DAE17F8010F62684D
:1050F00013681B6853450146F2D010469847F1E704
:10510000264F274E0FCF0FC60FCF0FC60FCF0FC69C
:1051100097E8030000234FF0030E3827FF2285F89D
:105120001FE285F820724FF0FE0E3D2785F82132F0
:1051300085F8223285F8233286E80300C22085F8FC
:1051400018220722F11D85F81B3285F81E32373EE2
:1051500085F819E285F81A7285F81C0285F81D2277
:1051600001E016F8012FB1421344FAD10D4EDB4392
:1051700084F85C32A6F14407FF2006E003F0D6FB7A
:10518000B7423FF41FAF17F8010F626813681B683E
:1051900053450146F2D010469847F1E75CA4000061
:1051A0000415FF1F3C15FF1F2DE9F04FC84D2B784C
:1051B00091B023B1C74F3B78002B40F0BA81C6486D
:1051C000C64C01F03BFF012800F01E82C44801F0EC
:1051D00035FF012800F02082DFF81CA3DAF8003048
:1051E0000693DDF818B0D4F8FC34BC49C3EB0B03CC
:1051F00042F6F822934284BF002381F8F434D4F8B5
:10520000E034B64A33B1D2F800359B4584BF002361
:10521000C2F8E034B34EB14D606803685B69B342D5
:1052200076D103F099FA002875DBD4F8F034D4F87D
:10523000E024AA4F0344072AC4F8F03452D07AB9C4
:10524000FF2800F0C680DAF800300993099BCBEB09
:105250000303052BE0D987F8F42411B0BDE8F08FE3
:10526000012A00F0BE80022A00F01081032A00F01B
:105270001881042A00F01F81052A00F04381062AC4
:1052800000F04881082AC7D1974A1A4000239A4261
:10529000C4F8E034C0F26183FF2ABDD1D4F8E83409
:1052A0008E4F002B00F044850A2B00F00885062B5A
:1052B00000F010840B2B00F0FF8305EB8303D3F881
:1052C000EC020028A8D00368884A1B68934240F08B
:1052D0009887697E2B7E426943EA012303820C3062
:1052E000904799E7D5F8EC24D5F8E434A918013BA8
:1052F00001320876C5F8EC24C5F8E434002B8BD1D4
:1053000060680823C4F8E03403685B69B34288D05E
:105310009847002889DA94F8F4347048002B9CD020
:10532000D0F8F83440F6C412C3EB0B03934294D97F
:10533000FF23FE21002280F8183280F81912F7238B
:1053400008250A2180F81C3280F81F2280F82022CC
:1053500080F8212280F8222280F8232280F824225B
:1053600080F8252280F8262280F81B2280F81E2251
:1053700080F81A5280F81D1200F21D2300F2262038
:1053800001E013F8011F98420A44FAD1584D594ED2
:10539000D24384F8272205F10F07FF2005E003F030
:1053A000C5FABD420BD015F8010F626813681B687F
:1053B000B3420146F3D010469847BD42F3D1DAF824
:1053C00000300D930D9BC4F8F8B4E36011B0BDE854
:1053D000F08F01220BF11403C5F8E024C5F8003565
:1053E0001AE7FE2800F08A8095F8F4240023C5F817
:1053F000E034002A7FF410AFFF23FE21082085F857
:10540000183285F81912F7230A2185F81C3285F81D
:105410001F2207F21D2385F8202285F8212285F816
:10542000222285F8232285F8242285F8252285F872
:10543000262285F81B2285F81E2285F81A0285F897
:105440001D1207F2262701E013F8011F9F420A44AC
:10545000FAD1DFF89C80274FD24384F8272208F145
:105460000F09FF2101E018F8011F626813681B682B
:10547000BB42084640F0CA8603F058FAC845F2D14C
:10548000DAF800300893089BE360C5E600220323A6
:10549000C5F8E404C5F8F004C5F8EC24C5F8E03418
:1054A000BAE6D5F8E43403EB00200423C5F8E4049D
:1054B000C5F8E034B0E60C4A1A40002AC0F248822F
:1054C000FF2A0CBF05230023C4F8E034A4E600BF84
:1054D000E818FF1F1018FF1FC418FF1FE012FF1F5E
:1054E0001418FF1FB9070000FF0000808D0700009F
:1054F000F814FF1F350A0000F019FF1F0223C5F83A
:10550000E03489E60623C5F8E804C5F8F004C5F8D8
:10551000E03481E6D5F8E834D5F8E42403EB002341
:105520000721C5F8E834C5F8E014002A3FF4E8AED6
:1055300072E69D4B1B78002B3FF441AE9B4B1B78D2
:10554000002B3FF43CAE9A4B9A4C93E803000622A2
:10555000F4234FF0FF0EFE26C4F82402A4F828120C
:105560000B2084F820220721002284F81A0284F8F4
:105570001C3284F818E284F8196284F81F2284F837
:10558000212284F8222284F8232284F81B2284F822
:105590001E2284F81D1204F21D2304F2292001E0CA
:1055A00013F8011F98420A44FAD1DFF84482824E70
:1055B000D24384F82A2208F11209FF2105E003F002
:1055C000B5F9C8450BD018F8011F626813681B684D
:1055D000B3420846F3D010469847C845F3D1774BFD
:1055E0001988032009B201F0ADFF754B198804201A
:1055F00009B201F0A7FF002372482B703B7001F045
:105600001DFD01287FF4E2ADFEF752FD6E4801F06A
:1056100015FD01287FF4E0AD6C4B1A7C012A40F2A5
:10562000BF8172B6DA6862B6694B197C012940F213
:10563000A38172B6D96862B6664E674FB369DFF868
:10564000B4A1664DDFF8B0919342BB6918BFB26157
:105650008B42DAF800300593059B18BFB961A5FBB2
:10566000030561695E4AAD094FF47A7000FB15339A
:1056700002FB031322690E930DA8AA180EA900902D
:1056800080460D9201F0C4FC5649574BCD687361BA
:105690002B68D1F808E01B68544A98E803004B4592
:1056A00082E8030040F06381BEF1630F04DD95F8EA
:1056B000F434002B00F0B28006F10C0007C8D6F8D5
:1056C00008C085F81FC24FEA1C2385F820324FEA34
:1056D0001C4385F821324FEA1C6C030A85F822C26C
:1056E00085F8230285F824324FEA104C0B0A000E8D
:1056F00085F825C285F8260285F8271285F8283214
:10570000080E00234FEA114C072185F82A0285F87C
:105710002C3285F82D3285F82E3285F829C285F88D
:105720002B121168C5F82F1205F22F20B2F804C011
:105730009179B66981710246310CA2F804C0300A31
:10574000320E85F8366285F83702FE2685F8381263
:1057500085F83922E4215FFA8EF24FF0FF0C1B200E
:105760004EF3072E85F818C285F819621E4685F893
:105770001B3285F81C1285F81A0285F81D2285F85F
:105780001EE205F21D2305F2392101E013F8012F75
:1057900099421644FAD1F34385F83A32064E05F29F
:1057A000172B05F23A282DE06218FF1F0C08FF1F87
:1057B00028A50000E012FF1F350A00001218FF1F85
:1057C0006018FF1FC418FF1F1418FF1F4C18FF1F7D
:1057D0008018FF1FA818FF1F3018FF1FD34D62103D
:1057E00040420F001C18FF1F20A50000B418FF1F27
:1057F000F814FF1FF019FF1FF12E000003F096F8B8
:10580000D8450BD06A681BF8011F13681B68B342A8
:105810000846F3D010469847D845F3D1A94BAA4A79
:10582000DD687A612968A94A0E6800999B6803C9F6
:105830004E4582E8030040F09580632B04DD95F827
:10584000F424002A3FF4CAACB968FA68386985F8CC
:105850001F124FEA112E85F820E24FEA114E090E71
:1058600085F821E285F8221285F823224FEA122ECC
:10587000110C120E7E6985F824E285F8251285F850
:10588000262285F827024FEA104E010E4FEA102C0F
:105890000722002085F82B2285F82C0285F82D029E
:1058A00085F82E0285F828C285F829E285F82A12A3
:1058B0003168BA69C5F82F12B6F804E0B67985F8F0
:1058C0003562170A160C110EA5F833E285F8362258
:1058D00085F83772FE2285F8386285F839124FF064
:1058E000FF0ED9B21B2743F30723E42685F818E2FD
:1058F00085F81922024685F81B0285F81E3285F8C4
:105900001A7285F81C6285F81D1205F21D2305F236
:10591000392001E013F8011F98420A44FAD1D2431A
:105920006B4E85F83A2205F2172705F23A2804E073
:1059300002F0FCFFB8453FF451AC6A6817F8011F4C
:1059400013681B68B3420846F2D010469847F1E747
:10595000013A62F0FF020132B2E5013A62F0FF0261
:10596000013299E40C3A19462846B04736E40C3A1D
:1059700071462846984751E772B693E822000878A6
:105980002E785D7A197A2E4200EA010048D0997A81
:1059900001F0030108B141F0040141F0080145E0C4
:1059A00072B61A68586811780578587A1A7A0542DA
:1059B00001EA020108D09A7A02F0030209B142F02A
:1059C000040242F0080205E09A7A02F0030200297C
:1059D00040F0FF839110013A99720D2A3FF622AEF2
:1059E00001A151F822F000BFB15A0000A95A0000ED
:1059F000A15A0000A95A000025560000795A00005B
:105A0000B15A0000B15A0000795A00002556000032
:105A1000A95A0000A15A0000A95A0000B15A00007A
:105A2000997A01F00301002840F0D08388100139F1
:105A300098720D293FF6FEAD01A050F821F000BF8D
:105A4000995A0000915A0000895A0000915A0000AA
:105A500035560000815A0000995A0000995A0000FA
:105A6000815A000035560000915A0000895A000002
:105A7000915A0000995A0000DA68023ADA60D2E5D9
:105A8000D9680239D960D6E5D9680231D960D2E542
:105A9000D9680139D960CEE5D9680131D960CAE544
:105AA000DA680232DA60BEE5DA68013ADA60BAE54D
:105AB000DA680132DA60B6E5002385F8F434FFF7DE
:105AC000ABBB00BF9418FF1F20A500003C18FF1FB0
:105AD000350A0000AF69D5F80C359F4206D9B900E8
